:10076700414443302056616C75653A253464200A4C
:020777000D0073
:100703001207797F807E257D007C0012079DE4FF20
:100713001206C18E088F097BFF7A07796785080D5A
:0807230085090E12000380E6B7
:0C077900C294C293C296D29575A0FF22D4
:1006C100EF139290EFC313139291EF1313543F134F
:1006D1009292D2937F327E00120785D2947F197E47
:1006E10000120785C2937F327E00120785C29430C3
:1006F10095FDD2967F197E00120785AFA07E00C2BC
:010701009661
:0107020022D4
:0C078500EF4E6007EF1F70F81E80F52299
:10075000AD07AC06ED4C600E7F707E00120785ED94
:070760001D70F11C80EE2268
:0B079D00438920759850D28E02062080
:080620008F0D8E0C8D0B8C0A6E
:10062800E47F607E09FDFCAB0DAA0CA90BA80AC3E8
:1006380012041C40367F007EC27D017C00A80AD3CC
:1006480012041C5026E47F807E01FDFCA80A1202D9
:10065800F1A804A905AA06AB077F007EC07DA87C87
:100668000012037C12040E8F0E8003750E5D850E3A
:010678008DF4
:01067900225E
:0807A8003098FDC298AF9922C0
:0807B0008F993099FDC29922D6
:10072B008B2E8A2F8930AB2EAA2FA93012028B6009
:10073B00130530E5307002052F14F912028BFF12EE
:05074B0007B080E2226E
:06067A008B3F8A4089411C
:10068000E4FE1207A8AD071207B0ED640D6003BDCC
:100690000A11AB3FAA40A9418E82758300E4120281
:1006A000A4801BBD0806EE60031E80D6AB3FAA40A7
:1006B000A9418E82758300ED1202A40E80C4AF069C
:0106C0002217
:0204EE008F2E4F
:1004F000E4F534E52E6402704FE533700302061F05
:1005000014FF74017E00A807088005C333CE33CEE4
:10051000D8F9FFEE3395E0FDFCEF5532FFEE553193
:10052000FEED5530FDEC552FFCE4FBFAF9F8C31253
:10053000041C60047F0180027F008F34E534243086
:10054000FF1207B0153380B1E4FFFEFDFCAB32AA09
:1005500031A930A82FC312041C701FF534E534C331
:100560009533400302061FE534C3940A4003020694
:100570001F7F301207B0053480E3E4F534E534C35F
:100580009533507CE4FFFEFDFCAB32AA31A930A8C4
:100590002FC312041C6051AF2EAB07E4FAF9F8AF79
:1005A00032AE31AD30AC2F12037CA804A905AA06E7
:1005B000AB07AF2EE4FCFDFE1202F1C3E5329FFF54
:1005C00074352534F8A607AF32AE31AD30AC2FC04C
:1005D00007AF2EAB07E4FAF9F8D00712037C8F328D
:1005E0008E318D308C2F8013E533F46013E533D3D7
:1005F000940A500C74352534F8E4F6053402057D70
:10060000E534601B2434F8E6FFD394094006EF2458
:0F06100037FF8004E62430FF1207B0153480E175
:01061F0022B8
:060003008B0A8A0B890C38
:10000900751F0075200075210D8B1C8A1D891EAB7B
:100019001CAA1DA91E12028BFF700302028AF52C6D
:100029006425600302027704251EF51EE4351DF5DB
:100039001DFAA91E12028BF52CC3648094B04043AB
:10004900D3E52C648094B9503AE4F52DC3E52C64CA
:100059008094B04031D3E52C648094B95028E52CC4
:1000690024D0FFE52D75F00AA42FF52D7401251E66
:10007900F51EE4351DF51DAB1CFAA91E12028BF500
:100089002C80C9752DFFE52C12046D0273250222FF
:100099004200BF43010E44025B5301705501C6582B
:1000A90001F06200BF6300D664025B73014B750106
:1000B9009B780000027CAB1F0521E521AA20700274
:1000C900052014F912028BF52CFF020279AB1FE50A
:1000D90021F92402F521E520FA3400F5201202C69F
:1000E900FDACF0C3EC64809480500CC3E49DFDE446
:1000F9009CFC7F2D1207B0AE04AF05EE3395E08F5F
:10010900328E31805CAB1FE521F92404F521E5200D
:10011900FA3400F52012042D8F258E248D238C228C
:10012900EC33501012040E8F258E248D238C227FE0
:100139002D1207B085253285243185233085222F5C
:100149008048AB1FE521F92402F521E520FA3400A6
:10015900F5201202C6F52785F026FFE48F328526A1
:1001690031F530F52F8023AB1FE521F92404F52162
:10017900E520FA3400F52012042D8F2B8E2A8D29C3
:100189008C288F328E318D308C2F852D337F0A024A
:100199000256AB1FE521F92402F521E520FA3400C6
:1001A900F5201202C6F52785F026FFE48F32852651
:1001B90031F530F52F852D337F10020256AB1FE53F
:1001C90021F92404F521E520FA3400F52012042D43
:1001D9008F2B8E2A8D298C288F328E318D308C2F42
:1001E900852D337F108066AB1FE521F92402F521A7
:1001F900E520FA3400F5201202C6F52785F026E538
:100209002DB4FF03752D10E4852732852631F5308D
:10021900F52F852D337F028034AB1FE521F92404A6
:10022900F521E520FA3400F52012042D8F2B8E2AB2
:100239008D298C28E52DB4FF03752D20852B32855A
:100249002A3185293085282F852D337F021204EE26
:100259008021AB1FE521F92403F521E520FA3400BB
:10026900F52012044D12072B80097F258002AF2C3F
:100279001207B07401251EF51EE4351DF51D020097
:01028900185C
:01028A002251
:0300000002079163
:0C079100787FE4F6D8FD75814102070373
:10028B00BB010689828A83E0225002E722BBFE0271
:09029B00E32289828A83E49322A4
:1002A400F8BB010DE58229F582E5833AF583E8F090
:1002B400225006E92582C8F622BBFE05E92582C83C
:0202C400F22224
:1002C600BB010A89828A83E0F5F0A3E02250068703
:1002D600F009E71922BBFE07E3F5F009E3192289C5
:0B02E600828A83E493F5F074019322F8
:1002F100E88FF0A4CC8BF0A42CFCE98EF0A42CFCAC
:100301008AF0EDA42CFCEA8EF0A4CDA8F08BF0A429
:100311002DCC3825F0FDE98FF0A42CCD35F0FCEB88
:100321008EF0A4FEA9F0EB8FF0A4CFC5F02ECD394D
:0F033100FEE43CFCEAA42DCE35F0FDE43CFC22BA
:1003400075F008758200EF2FFFEE33FECD33CDCC74
:1003500033CCC58233C5829BED9AEC99E5829840F7
:100360000CF582EE9BFEED9AFDEC99FC0FD5F0D6D4
:10037000E4CEFBE4CDFAE4CCF9A88222B800C1B9FE
:100380000059BA002DEC8BF084CFCECDFCE5F0CB3C
:10039000F97818EF2FFFEE33FEED33FDEC33FCEB75
:1003A00033FB10D703994004EB99FB0FD8E5E4F930
:1003B000FA227818EF2FFFEE33FEED33FDEC33FC1D
:1003C000C933C910D7059BE99A4007EC9BFCE99A11
:1003D000F90FD8E0E4C9FAE4CCFB2275F010EF2F56
:1003E000FFEE33FEED33FDCC33CCC833C810D70756
:1003F0009BEC9AE899400AED9BFDEC9AFCE899F891
:0E0400000FD5F0DAE4CDFBE4CCFAE4C8F92223
:0E040E00C3E49FFFE49EFEE49DFDE49CFC22FF
:10041C00EB9FF5F0EA9E42F0E99D42F0E89C45F036
:01042C0022AD
:10042D00BB010789828A8302049F5005E9F8020403
:10043D0093BBFE05E9F80204AB89828A830204B7F7
:10044D00BB010789828A830204D05005E9F80204B2
:10045D00C7BBFE05E9F80204D989828A830204E24A
:10046D00D083D082F8E4937012740193700DA3A31E
:10047D0093F8740193F5828883E473740293686032
:06048D00EFA3A3A380DF32
:0C049300E6FC08E6FD08E6FE08E6FF2295
:0C049F00E0FCA3E0FDA3E0FEA3E0FF22D0
:0C04AB00E2FC08E2FD08E2FE08E2FF228D
:1004B700E493FC740193FD740293FE740393FF228B
:0904C700E6FB08E6FA08E6F9225A
:0904D000E0FBA3E0FAA3E0F9222D
:0904D900E2FB08E2FA08E2F92254
:0C04E200E493FB740193FA740293F92276
:00000001FF
