:100620000A0D53746172746572203830353120546C
:10063000657374204D656E750A0D20312E4C65640E
:1006400020746573740A0D20322E4C636420746527
:1006500073740A0D20332E537769746368207465B0
:1006600073740A0D53656C656374204F6E65206F5B
:1006700066207468652061626F7665206F707469AA
:100680006F6E73004578706C6F72650A20537461E9
:100690007274657220383035312E2E2E000A0A0A07
:1006A0000D50726573732074686520737769746385
:1006B00068657320616E64206F6273657276652071
:1006C000746865206F7574707574206F6E204C654A
:0306D00064730050
:1008A4007D017F1A12077A7D017F1B12077A7F1A56
:1008B4001206D3EF640170437F1B1206D3EF640169
:1008C4007039FD7F1C12077AE4FD7F1D12077A7DC3
:1008D400017F1C12077A7D017F1D12077A7FC87E73
:1008E40000120D9DE4FD7F1C12077AE4FD7F1D12AA
:1008F400077A7FC87E00120D9D80D47F807E257D7F
:10090400007C00120DD57BFF7A06792012000312B9
:100914000DEAEF24CE600C14600E240270F1120A6A
:0D0924008780EC120C5680E7120B9F80E2DA
:100A87007580FF7590FF75A0FF75B0FF7FF47E013D
:100A9700120D9DE4F580F590F5A0F5B07FF47E0189
:100AA700120D9D750901E4F5088509808509908572
:100AB70009A08509B0E50925E0F5097FC87E001280
:0D0AC7000D9D0508E508C3940840DE80B3CE
:100C5600750BFF750CFF750DFF750EFF750F04758F
:100C660010057511067512077B027D01E4FF120857
:100C7600147D107F02120BDE7BFF7A067984120C3C
:030C8600D580FE18
:100B9F00E4FD7F1C12077AE4FD7F1D12077A7D01A9
:100BAF007F1A12077A7D017F1B12077A7BFF7A0665
:100BBF00799D120CFA7F1A1206D3AD077F1C12070C
:0F0BCF007A7F1B1206D3AD077F1D12077A80E6CF
:0C0DC900EF4E6007EF1F70F81E80F5224F
:100D9D00AD07AC06ED4C600E7F707E00120DC9EDF7
:070DAD001D70F11C80EE2215
:10077A00EF131313541FFE53070714602D14604A16
:10078A0014606724036003020813ED600E7401A865
:10079A0007088002C333D8FC4280227401A80708E4
:1007AA008002C333D8FCF4528022ED600E7401A893
:1007BA0007088002C333D8FC4290227401A80708B4
:1007CA008002C333D8FCF4529022ED600E7401A863
:1007DA0007088002C333D8FC42A0227401A8070884
:1007EA008002C333D8FCF452A022ED600E7401A833
:1007FA0007088002C333D8FC42B0227401A8070854
:09080A008002C333D8FCF452B0A3
:0108130022C2
:0206D300AD0771
:1006D500E4FCED131313541FFF53050714602E1488
:1006E500604C14606A2403600302077774017E007E
:1006F500A805088005C333CE33CED8F9FFAB80EF0C
:100705005B60047F0180027F00AC07806574017E19
:1007150000A805088005C333CE33CED8F9FFAB90CA
:10072500EF5B60047F0180027F00AC0780447401A9
:100735007E00A805088005C333CE33CED8F9FFABBC
:10074500A0EF5B60047F0180027F00AC078023AFD0
:100755000574017E00A807088005C333CE33CED8C3
:10076500F9FFADB0EDFBEF5B60047F0180027F0018
:04077500AC07AF041A
:01077900225D
:060DFA00044D80C090D002
:100814008F088D098B0A850842850943850A44851A
:100824000B45850C46850D47850E48850F49851077
:100834004A85114B85124CE50BF4600FE50CF4600E
:100844000AE50DF46005E50EB4FF05754104801F4B
:10085400754108E4FDAF0B12077AE4FDAF0C1207F3
:100864007AE4FDAF0D12077AE4FDAF0E12077AE4C5
:10087400FDAF0812077AE4FDAF0912077AE4FDAF71
:100884000A12077AE4FDAF0F12077AE4FDAF1012E3
:10089400077AE4FDAF1112077AE4FDAF1202077A7A
:100BDE008D408F3FEFD39402400DED540FFF2490C4
:100BEE00F54FEF24D0F5507F647E00120D9DE54148
:100BFE00B408047F38800AE541B40408120C1A7F49
:0C0C0E0028120C897F0E120C89020DE0E8
:0A0DE0007F01120C89E4FF020DB43C
:100DB400EFC3953F500EE4F53D8F3E744D2FF8E69A
:050DC400FF120C892262
:100D8400053EE4F53DE53EC3953F4003E4F53E747E
:090D94004D253EF8E6FF020C8932
:100C89008F0C1209BDE541AF0CB40805120B5D804C
:100C99000D120B1B120D1FE50CC454F0F50CAF0C13
:060CA900120B1B020D1FDF
:100D65008F0BE53DC395405005E50BB40A03120D05
:0F0D750084E50B640A6007AF0B120CAF053D223B
:100CD5008B088A09890AAB08AA09A90A12028B603E
:100CE50013050AE50A7002050914F912028BFF12B1
:050CF5000D6580E22204
:100CAF008F0C1209BDE541AF0CB40805120B5D8026
:100CBF000D120B1B120D42E50CC454F0F50CAF0CCA
:060CCF00120B1B020D4296
:1009BD00E543F460637D01AF4C12077AE4FDAF426D
:1009CD0012077A7D01AF4312077AE4FDAF44120797
:1009DD007A7F0A7E00120DC97D01AF4412077A7F1E
:1009ED000A7E00120DC9AF4C1206D38F0DE541B42E
:1009FD00041CE4FDAF4412077A7F0A7E00120DC974
:100A0D007D01AF4412077A7F0A7E00120DC9E50DF4
:0F0A1D0070B8FDAF4C02077A7F017E00120D9D6D
:010A2C0022A7
:100C1A007F30120B1B120D1F7F647E00120D9D7F09
:100C2A0030120B1B120D1F7FC87E00120DC97F30B8
:100C3A00120B1B120D1F7FC87E00120DC97F2012D6
:0C0C4A000B1B120D1F7FC87E00020DC99D
:100B1B008F0DE50D30E4047D0180027D00AF49129D
:100B2B00077AE50D30E5047D0180027D00AF4A12A6
:100B3B00077AE50D30E6047D0180027D00AF4B1294
:100B4B00077AE50D30E7047D0180027D00AF4C0292
:020B5B00077A17
:100B5D008F0DE50D30E0047D0180027D00AF451263
:100B6D00077AE50D30E1047D0180027D00AF46126C
:100B7D00077AE50D30E2047D0180027D00AF47125A
:100B8D00077AE50D30E3047D0180027D00AF480258
:020B9D00077AD5
:100D1F00E4FDAF4212077AE4FDAF4312077A7D017B
:100D2F00AF4412077A7F0A7E00120DC9E4FDAF446B
:030D3F0002077A2E
:100D42007D01AF4212077AE4FDAF4312077A7D01BB
:100D5200AF4412077A7F0A7E00120DC9E4FDAF4448
:030D620002077A0B
:0B0DD500438920759850D28E020A2D31
:080A2D008F0B8E0A8D098C0865
:100A3500E47F607E09FDFCAB0BAA0AA909A808C3DF
:100A450012041C40367F007EC27D017C00A808D3BD
:100A550012041C5026E47F807E01FDFCA8081202CA
:100A6500F1A804A905AA06AB077F007EC07DA87C76
:100A75000012037C12040E8F0C8003750C5D850C2F
:010A85008DE3
:010A8600224D
:080DEA003098FDC298AF992278
:080DF2008F993099FDC299228E
:100CFA008B2C8A2D892EAB2CAA2DA92E12028B6041
:100D0A0013052EE52E7002052D14F912028BFF121F
:050D1A000DF280E22251
:060AD4008B518A52895388
:100ADA00E4FE120DEAAD07120DF2ED640D6003BDDE
:100AEA000A11AB51AA52A9538E82758300E41202ED
:100AFA00A4801BBD0806EE60031E80D6AB51AA5225
:100B0A00A9538E82758300ED1202A40E80C4AF062B
:010B1A0022B8
:0204EE008F2C51
:1004F000E4F532E52C6402704FE531700302061F0B
:1005000014FF74017E00A807088005C333CE33CEE4
:10051000D8F9FFEE3395E0FDFCEF5530FFEE552F97
:10052000FEED552EFDEC552DFCE4FBFAF9F8C31257
:10053000041C60047F0180027F008F32E53224308A
:10054000FF120DF2153180B1E4FFFEFDFCAB30AAC5
:100550002FA92EA82DC312041C701FF532E532C33B
:100560009531400302061FE532C3940A4003020698
:100570001F7F30120DF2053280E3E4F532E532C31D
:100580009531507CE4FFFEFDFCAB30AA2FA92EA8CC
:100590002DC312041C6051AF2CAB07E4FAF9F8AF7D
:1005A00030AE2FAD2EAC2D12037CA804A905AA06EF
:1005B000AB07AF2CE4FCFDFE1202F1C3E5309FFF58
:1005C00074332532F8A607AF30AE2FAD2EAC2DC058
:1005D00007AF2CAB07E4FAF9F8D00712037C8F3091
:1005E0008E2F8D2E8C2D8013E531F46013E531D3E1
:1005F000940A500C74332532F8E4F6053202057D76
:10060000E532601B2432F8E6FFD394094006EF245C
:0F06100037FF8004E62430FF120DF2153280E12F
:01061F0022B8
:060003008B088A09890A3E
:10000900751D00751E00751F0B8B1A8A1B891CAB89
:100019001AAA1BA91C12028BFF700302028AF52A75
:100029006425600302027704251CF51CE4351BF5E1
:100039001BFAA91C12028BF52AC3648094B04043B1
:10004900D3E52A648094B9503AE4F52BC3E52A64D0
:100059008094B04031D3E52A648094B95028E52AC8
:1000690024D0FFE52B75F00AA42FF52B7401251C6C
:10007900F51CE4351BF51BAB1AFAA91C12028BF50A
:100089002A80C9752BFFE52A12046D027325022205
:100099004200BF43010E44025B5301705501C6582B
:1000A90001F06200BF6300D664025B73014B750106
:1000B9009B780000027CAB1D051FE51FAA1E70027C
:1000C900051E14F912028BF52AFF020279AB1DE510
:1000D9001FF92402F51FE51EFA3400F51E1202C6A7
:1000E900FDACF0C3EC64809480500CC3E49DFDE446
:1000F9009CFC7F2D120DF2AE04AF05EE3395E08F17
:10010900308E2F805CAB1DE51FF92404F51FE51E19
:10011900FA3400F51E12042D8F238E228D218C2096
:10012900EC33501012040E8F238E228D218C207FE8
:100139002D120DF285233085222F85212E85202D24
:100149008048AB1DE51FF92402F51FE51EFA3400AE
:10015900F51E1202C6F52585F024FFE48F308524AB
:100169002FF52EF52D8023AB1DE51FF92404F51F6E
:10017900E51EFA3400F51E12042D8F298E288D27CD
:100189008C268F308E2F8D2E8C2D852B317F0A0258
:100199000256AB1DE51FF92402F51FE51EFA3400CE
:1001A900F51E1202C6F52585F024FFE48F3085245B
:1001B9002FF52EF52D852B317F10020256AB1DE54B
:1001C9001FF92404F51FE51EFA3400F51E12042D4B
:1001D9008F298E288D278C268F308E2F8D2E8C2D52
:1001E900852B317F108066AB1DE51FF92402F51FB1
:1001F900E51EFA3400F51E1202C6F52585F024E540
:100209002BB4FF03752B10E485253085242FF52E9B
:10021900F52D852B317F028034AB1DE51FF92404B0
:10022900F51FE51EFA3400F51E12042D8F298E28BC
:100239008D278C26E52BB4FF03752B208529308566
:10024900282F85272E85262D852B317F021204EE36
:100259008021AB1DE51FF92403F51FE51EFA3400C3
:10026900F51E12044D120CFA80097F258002AF2A6F
:10027900120DF27401251CF51CE4351BF51B020057
:01028900185C
:01028A002251
:03000000020931C1
:0C093100787FE4F6D8FD75815302097848
:10028B00BB010689828A83E0225002E722BBFE0271
:09029B00E32289828A83E49322A4
:1002A400F8BB010DE58229F582E5833AF583E8F090
:1002B400225006E92582C8F622BBFE05E92582C83C
:0202C400F22224
:1002C600BB010A89828A83E0F5F0A3E02250068703
:1002D600F009E71922BBFE07E3F5F009E3192289C5
:0B02E600828A83E493F5F074019322F8
:1002F100E88FF0A4CC8BF0A42CFCE98EF0A42CFCAC
:100301008AF0EDA42CFCEA8EF0A4CDA8F08BF0A429
:100311002DCC3825F0FDE98FF0A42CCD35F0FCEB88
:100321008EF0A4FEA9F0EB8FF0A4CFC5F02ECD394D
:0F033100FEE43CFCEAA42DCE35F0FDE43CFC22BA
:1003400075F008758200EF2FFFEE33FECD33CDCC74
:1003500033CCC58233C5829BED9AEC99E5829840F7
:100360000CF582EE9BFEED9AFDEC99FC0FD5F0D6D4
:10037000E4CEFBE4CDFAE4CCF9A88222B800C1B9FE
:100380000059BA002DEC8BF084CFCECDFCE5F0CB3C
:10039000F97818EF2FFFEE33FEED33FDEC33FCEB75
:1003A00033FB10D703994004EB99FB0FD8E5E4F930
:1003B000FA227818EF2FFFEE33FEED33FDEC33FC1D
:1003C000C933C910D7059BE99A4007EC9BFCE99A11
:1003D000F90FD8E0E4C9FAE4CCFB2275F010EF2F56
:1003E000FFEE33FEED33FDCC33CCC833C810D70756
:1003F0009BEC9AE899400AED9BFDEC9AFCE899F891
:0E0400000FD5F0DAE4CDFBE4CCFAE4C8F92223
:0E040E00C3E49FFFE49EFEE49DFDE49CFC22FF
:10041C00EB9FF5F0EA9E42F0E99D42F0E89C45F036
:01042C0022AD
:10042D00BB010789828A8302049F5005E9F8020403
:10043D0093BBFE05E9F80204AB89828A830204B7F7
:10044D00BB010789828A830204D05005E9F80204B2
:10045D00C7BBFE05E9F80204D989828A830204E24A
:10046D00D083D082F8E4937012740193700DA3A31E
:10047D0093F8740193F5828883E473740293686032
:06048D00EFA3A3A380DF32
:10093D000208A4E493A3F8E493A34003F68001F224
:10094D0008DFF48029E493A3F85407240CC8C333BB
:10095D00C4540F4420C8834004F456800146F6DF8A
:10096D00E4800B0102040810204080900DFAE47E13
:10097D00019360BCA3FF543F30E509541FFEE4937F
:10098D00A360010ECF54C025E060A840B8E493A346
:10099D00FAE493A3F8E493A3C8C582C8CAC583CA71
:1009AD00F0A3C8C582C8CAC583CADFE9DEE780BE29
:010E000000F1
:0C049300E6FC08E6FD08E6FE08E6FF2295
:0C049F00E0FCA3E0FDA3E0FEA3E0FF22D0
:0C04AB00E2FC08E2FD08E2FE08E2FF228D
:1004B700E493FC740193FD740293FE740393FF228B
:0904C700E6FB08E6FA08E6F9225A
:0904D000E0FBA3E0FAA3E0F9222D
:0904D900E2FB08E2FA08E2F92254
:0C04E200E493FB740193FA740293F92276
:00000001FF
