:100C17004578706C6F726520456D626564646564C4
:100C27000A004C434420342D626974204D6F64657B
:100C37000A00323020782034200A003A2920203A4E
:020C47004F005C
:100ACD00751FFF7520FF7521FF7522FF75230475B6
:100ADD0024057525067526077B027D01E4FF1209A5
:100AED00417D147F04120B9F7BFF7A0C7917120C3A
:100AFD00957BFF7A0C7929120C957BFF7A0C79394D
:0E0B0D00120C957BFF7A0C7942120C9580FE3B
:1008A700EF131313541FFE53070714602D14604AE8
:1008B70014606724036003020940ED600E7401A809
:1008C70007088002C333D8FC4280227401A80708B6
:1008D7008002C333D8FCF4528022ED600E7401A865
:1008E70007088002C333D8FC4290227401A8070886
:1008F7008002C333D8FCF4529022ED600E7401A835
:1009070007088002C333D8FC42A0227401A8070855
:100917008002C333D8FCF452A022ED600E7401A804
:1009270007088002C333D8FC42B0227401A8070825
:090937008002C333D8FCF452B075
:010940002294
:02080000AD0742
:10080200E4FCED131313541FFF53050714602E1459
:10081200604C14606A240360030208A474017E0021
:10082200A805088005C333CE33CED8F9FFAB80EFDD
:100832005B60047F0180027F00AC07806574017EEB
:1008420000A805088005C333CE33CED8F9FFAB909C
:10085200EF5B60047F0180027F00AC07804474017B
:100862007E00A805088005C333CE33CED8F9FFAB8E
:10087200A0EF5B60047F0180027F00AC078023AFA2
:100882000574017E00A807088005C333CE33CED895
:10089200F9FFADB0EDFBEF5B60047F0180027F00EA
:0408A200AC07AF04EC
:0108A600222F
:060D9300041880C090D09E
:100941008F1C8D1D8B1E851C0D851D0E851E0F8513
:100951001F108520118521128522138523148524DA
:1009610015852516852617E51FF4600FE520F4602F
:100971000AE521F46005E522B4FF05750C04801F2A
:10098100750C08E4FDAF1F1208A7E4FDAF201208A3
:10099100A7E4FDAF211208A7E4FDAF221208A7E4E6
:1009A100FDAF1C1208A7E4FDAF1D1208A7E4FDAFBF
:1009B1001E1208A7E4FDAF231208A7E4FDAF24121D
:1009C10008A7E4FDAF251208A7E4FDAF260208A79A
:100B9F008D0B8F0AEFD39402400DED540FFF24906D
:100BAF00F51AEF24D0F51B7F647E00120D51E50C72
:100BBF00B408047F38800AE50CB40408120BDB7FFD
:0C0BCF0028120C497F0E120C49020D89FF
:0A0D89007F01120C49E4FF020D681F
:100D6800EFC3950A500EE4F5088F0974182FF8E6BA
:050D7800FF120C4922EE
:100D1F000509E4F508E509C3950A4003E4F50974EC
:090D2F00182509F8E6FF020C4941
:100C49008F20120A5DE50CAF20B40805120B5D80F8
:100C59000D120B1B120CBAE520C454F0F520AF207D
:060C6900120B1B020CBA85
:100D00008F1FE508C3950B5005E51FB40A03120DAC
:0F0D10001FE51F640A6007AF1F120C6F05082252
:100C95008B1C8A1D891EAB1CAA1DA91E120D38604E
:100CA50013051EE51E7002051D14F9120D38FF12FD
:050CB5000D0080E222A9
:100C6F008F20120A5DE50CAF20B40805120B5D80D2
:100C7F000D120B1B120CDDE520C454F0F520AF2034
:060C8F00120B1B020CDD3C
:100A5D00E50EF460637D01AF171208A7E4FDAF0D3D
:100A6D001208A77D01AF0E1208A7E4FDAF0F120803
:100A7D00A77F0A7E00120D7D7D01AF0F1208A77FA3
:100A8D000A7E00120D7DAF171208008F21E50CB400
:100A9D00041CE4FDAF0F1208A77F0A7E00120D7D26
:100AAD007D01AF0F1208A77F0A7E00120D7DE52193
:0F0ABD0070B8FDAF170208A77F017E00120D5120
:010ACC002207
:100BDB007F30120B1B120CBA7F647E00120D517FFB
:100BEB0030120B1B120CBA7FC87E00120D7D7F30AA
:100BFB00120B1B120CBA7FC87E00120D7D7F2012C8
:0C0C0B000B1B120CBA7FC87E00020D7D8E
:100B1B008F21E52130E4047D0180027D00AF1412AA
:100B2B0008A7E52130E5047D0180027D00AF151299
:100B3B0008A7E52130E6047D0180027D00AF161287
:100B4B0008A7E52130E7047D0180027D00AF170285
:020B5B0008A7E9
:100B5D008F21E52130E0047D0180027D00AF101270
:100B6D0008A7E52130E1047D0180027D00AF11125F
:100B7D0008A7E52130E2047D0180027D00AF12124D
:100B8D0008A7E52130E3047D0180027D00AF13024B
:020B9D0008A7A7
:100CBA00E4FDAF0D1208A7E4FDAF0E1208A77D01EF
:100CCA00AF0F1208A77F0A7E00120D7DE4FDAF0F59
:030CDA000208A766
:100CDD007D01AF0D1208A7E4FDAF0E1208A77D012F
:100CED00AF0F1208A77F0A7E00120D7DE4FDAF0F36
:030CFD000208A743
:0C0D7D00EF4E6007EF1F70F81E80F5229B
:100D5100AD07AC06ED4C600E7F707E00120D7DED8F
:070D61001D70F11C80EE2261
:030000000209D121
:0C09D100787FE4F6D8FD758126020A1834
:100D3800BB010689828A83E0225002E722BBFE02B9
:090D4800E32289828A83E49322EC
:1009DD00020ACDE493A3F8E493A34003F68001F259
:1009ED0008DFF48029E493A3F85407240CC8C3331B
:1009FD00C4540F4420C8834004F456800146F6DFEA
:100A0D00E4800B0102040810204080900D93E47ED9
:100A1D00019360BCA3FF543F30E509541FFEE493DE
:100A2D00A360010ECF54C025E060A840B8E493A3A5
:100A3D00FAE493A3F8E493A3C8C582C8CAC583CAD0
:100A4D00F0A3C8C582C8CAC583CADFE9DEE780BE88
:010D99000059
:00000001FF
