:100CFC004578706C6F726520456D626564646564DF
:100D0C00004578706C6F726520456D626564646532
:030D1C00640A0066
:100B4400751FFF7520FF7521FF7522FF752304753E
:100B540024057525067526077B027D01E4FF12092D
:100B6400417D107F02120C0B7BFF7A0C79FCE4FFB1
:100B7400120A5D120DD57BFF7A0D790D120000E487
:030B8400FEFF224F
:1008A700EF131313541FFE53070714602D14604AE8
:1008B70014606724036003020940ED600E7401A809
:1008C70007088002C333D8FC4280227401A80708B6
:1008D7008002C333D8FCF4528022ED600E7401A865
:1008E70007088002C333D8FC4290227401A8070886
:1008F7008002C333D8FCF4529022ED600E7401A835
:1009070007088002C333D8FC42A0227401A8070855
:100917008002C333D8FCF452A022ED600E7401A804
:1009270007088002C333D8FC42B0227401A8070825
:090937008002C333D8FCF452B075
:010940002294
:02080000AD0742
:10080200E4FCED131313541FFF53050714602E1459
:10081200604C14606A240360030208A474017E0021
:10082200A805088005C333CE33CED8F9FFAB80EFDD
:100832005B60047F0180027F00AC07806574017EEB
:1008420000A805088005C333CE33CED8F9FFAB909C
:10085200EF5B60047F0180027F00AC07804474017B
:100862007E00A805088005C333CE33CED8F9FFAB8E
:10087200A0EF5B60047F0180027F00AC078023AFA2
:100882000574017E00A807088005C333CE33CED895
:10089200F9FFADB0EDFBEF5B60047F0180027F00EA
:0408A200AC07AF04EC
:0108A600222F
:060DDF00041880C090D052
:100941008F1C8D1D8B1E851C0D851D0E851E0F8513
:100951001F108520118521128522138523148524DA
:1009610015852516852617E51FF4600FE520F4602F
:100971000AE521F46005E522B4FF05750C04801F2A
:10098100750C08E4FDAF1F1208A7E4FDAF201208A3
:10099100A7E4FDAF211208A7E4FDAF221208A7E4E6
:1009A100FDAF1C1208A7E4FDAF1D1208A7E4FDAFBF
:1009B1001E1208A7E4FDAF231208A7E4FDAF24121D
:1009C10008A7E4FDAF251208A7E4FDAF260208A79A
:100C0B008D0B8F0AEFD39402400DED540FFF249000
:100C1B00F51AEF24D0F51B7F647E00120D9DE50CB9
:100C2B00B408047F38800AE50CB40408120C477F23
:0C0C3B0028120CB07F0E120CB0020DD578
:0A0DD5007F01120CB0E4FF020DB420
:100DB400EFC3950A500EE4F5088F0974182FF8E66E
:050DC400FF120CB0223B
:100D84000509E4F508E509C3950A4003E4F5097487
:090D9400182509F8E6FF020CB075
:100CB0008F23120AD4E50CAF23B40805120BC980A8
:100CC0000D120B87120D1FE523C454F0F523AF233B
:060CD000120B87020D1F4C
:100D65008F22E508C3950B5005E522B40A03120D41
:0F0D750084E522640A6007AF22120CD60508221B
:080A5D008F1C8B1D8A1E891FEE
:100A6500E51CC3950A4003E4F51C7F0C120CB0E4A9
:100A7500F520AB1DAA1EA91F852082758300120CC7
:100A8500836047AF1C120DB4E4F521E521C3950B36
:100A9500501DE5212520F582E433F583AB1DAA1E03
:100AA500A91F120C83FF6007120D65052180DCE587
:100AB50021C3950B50097F20120D65052180F07F1C
:0F0AC500647E00120D9D052080A87F0E020CB0EC
:100CD6008F23120AD4E50CAF23B40805120BC98082
:100CE6000D120B87120D42E523C454F0F523AF23F2
:060CF600120B87020D4203
:100AD400E50EF460637D01AF171208A7E4FDAF0DC6
:100AE4001208A77D01AF0E1208A7E4FDAF0F12088C
:100AF400A77F0A7E00120DC97D01AF0F1208A77FE0
:100B04000A7E00120DC9AF171208008F24E50CB439
:100B1400041CE4FDAF0F1208A77F0A7E00120DC962
:100B24007D01AF0F1208A77F0A7E00120DC9E524CC
:0F0B340070B8FDAF170208A77F017E00120D9D5C
:010B4300228F
:100C47007F30120B87120D1F7F647E00120D9D7F70
:100C570030120B87120D1F7FC87E00120DC97F301F
:100C6700120B87120D1F7FC87E00120DC97F20123D
:0C0C77000B87120D1F7FC87E00020DC904
:100B87008F24E52430E4047D0180027D00AF141238
:100B970008A7E52430E5047D0180027D00AF15122A
:100BA70008A7E52430E6047D0180027D00AF161218
:100BB70008A7E52430E7047D0180027D00AF170216
:020BC70008A77D
:100BC9008F24E52430E0047D0180027D00AF1012FE
:100BD90008A7E52430E1047D0180027D00AF1112F0
:100BE90008A7E52430E2047D0180027D00AF1212DE
:100BF90008A7E52430E3047D0180027D00AF1302DC
:020C090008A73A
:100D1F00E4FDAF0D1208A7E4FDAF0E1208A77D0189
:100D2F00AF0F1208A77F0A7E00120DC9E4FDAF0FA7
:030D3F000208A700
:100D42007D01AF0D1208A7E4FDAF0E1208A77D01C9
:100D5200AF0F1208A77F0A7E00120DC9E4FDAF0F84
:030D62000208A7DD
:0C0DC900EF4E6007EF1F70F81E80F5224F
:100D9D00AD07AC06ED4C600E7F707E00120DC9EDF7
:070DAD001D70F11C80EE2215
:030000000209D121
:0C09D100787FE4F6D8FD758126020A1834
:100C8300BB010CE58229F582E5833AF583E0225026
:100C930006E92582F8E622BBFE06E92582F8E22270
:0D0CA300E58229F582E5833AF583E493228A
:1009DD00020B44E493A3F8E493A34003F68001F2E1
:1009ED0008DFF48029E493A3F85407240CC8C3331B
:1009FD00C4540F4420C8834004F456800146F6DFEA
:100A0D00E4800B0102040810204080900DDFE47E8D
:100A1D00019360BCA3FF543F30E509541FFEE493DE
:100A2D00A360010ECF54C025E060A840B8E493A3A5
:100A3D00FAE493A3F8E493A3C8C582C8CAC583CAD0
:100A4D00F0A3C8C582C8CAC583CADFE9DEE780BE88
:010DE500000D
:00000001FF
